{
  "_format": "hh-sol-artifact-1",
  "contractName": "WavePortal",
  "sourceName": "contracts/WavePortal.sol",
  "abi": [
    {
      "inputs": [],
      "stateMutability": "payable",
      "type": "constructor"
    },
    {
      "anonymous": false,
      "inputs": [
        {
          "indexed": true,
          "internalType": "address",
          "name": "from",
          "type": "address"
        },
        {
          "indexed": false,
          "internalType": "uint256",
          "name": "timestamp",
          "type": "uint256"
        },
        {
          "indexed": false,
          "internalType": "string",
          "name": "message",
          "type": "string"
        }
      ],
      "name": "waveCreated",
      "type": "event"
    },
    {
      "inputs": [],
      "name": "getTotalWaves",
      "outputs": [
        {
          "internalType": "uint256",
          "name": "",
          "type": "uint256"
        }
      ],
      "stateMutability": "view",
      "type": "function"
    },
    {
      "inputs": [],
      "name": "getWaves",
      "outputs": [
        {
          "components": [
            {
              "internalType": "address",
              "name": "sender",
              "type": "address"
            },
            {
              "internalType": "string",
              "name": "message",
              "type": "string"
            },
            {
              "internalType": "uint256",
              "name": "timestamp",
              "type": "uint256"
            }
          ],
          "internalType": "struct WavePortal.Wave[]",
          "name": "",
          "type": "tuple[]"
        }
      ],
      "stateMutability": "view",
      "type": "function"
    },
    {
      "inputs": [
        {
          "internalType": "address",
          "name": "",
          "type": "address"
        }
      ],
      "name": "lastWaveAt",
      "outputs": [
        {
          "internalType": "uint256",
          "name": "",
          "type": "uint256"
        }
      ],
      "stateMutability": "view",
      "type": "function"
    },
    {
      "inputs": [
        {
          "internalType": "string",
          "name": "_message",
          "type": "string"
        }
      ],
      "name": "wave",
      "outputs": [],
      "stateMutability": "nonpayable",
      "type": "function"
    }
  ],
  "bytecode": "0x6080604052606444426100129190610027565b61001c9190610087565b600081905550610116565b60006100328261007d565b915061003d8361007d565b9250827fffffffffffffffffffffffffffffffffffffffffffffffffffffffffffffffff03821115610072576100716100b8565b5b828201905092915050565b6000819050919050565b60006100928261007d565b915061009d8361007d565b9250826100ad576100ac6100e7565b5b828206905092915050565b7f4e487b7100000000000000000000000000000000000000000000000000000000600052601160045260246000fd5b7f4e487b7100000000000000000000000000000000000000000000000000000000600052601260045260246000fd5b610cb180620001266000396000f3fe608060405234801561001057600080fd5b506004361061004c5760003560e01c8063449d46c0146100515780639a2cdc081461006d578063a9d42f7e1461008b578063cb199503146100a9575b600080fd5b61006b6004803603810190610066919061062d565b6100d9565b005b61007561036e565b6040516100829190610943565b60405180910390f35b61009361037b565b6040516100a091906108e1565b60405180910390f35b6100c360048036038101906100be9190610604565b6104cc565b6040516100d09190610943565b60405180910390f35b42600260003373ffffffffffffffffffffffffffffffffffffffff1673ffffffffffffffffffffffffffffffffffffffff16815260200190815260200160002081905550600160405180606001604052803373ffffffffffffffffffffffffffffffffffffffff16815260200183815260200142815250908060018154018082558091505060019003906000526020600020906003020160009091909190915060008201518160000160006101000a81548173ffffffffffffffffffffffffffffffffffffffff021916908373ffffffffffffffffffffffffffffffffffffffff16021790555060208201518160010190805190602001906101dc9291906104e4565b50604082015181600201555050606460005442446101fa9190610a60565b6102049190610a60565b61020e9190610b66565b60008190555060326000541161031b576000655af3107a400090504781111561026c576040517f08c379a000000000000000000000000000000000000000000000000000000000815260040161026390610903565b60405180910390fd5b60003373ffffffffffffffffffffffffffffffffffffffff1682604051610292906108cc565b60006040518083038185875af1925050503d80600081146102cf576040519150601f19603f3d011682016040523d82523d6000602084013e6102d4565b606091505b5050905080610318576040517f08c379a000000000000000000000000000000000000000000000000000000000815260040161030f90610923565b60405180910390fd5b50505b3373ffffffffffffffffffffffffffffffffffffffff167f7ed0a6d6ca0f6c751f856590d6e44b3173a633df4ddb8c8a20139b86560adef3428360405161036392919061095e565b60405180910390a250565b6000600180549050905090565b60606001805480602002602001604051908101604052809291908181526020016000905b828210156104c357838290600052602060002090600302016040518060600160405290816000820160009054906101000a900473ffffffffffffffffffffffffffffffffffffffff1673ffffffffffffffffffffffffffffffffffffffff1673ffffffffffffffffffffffffffffffffffffffff16815260200160018201805461042890610b34565b80601f016020809104026020016040519081016040528092919081815260200182805461045490610b34565b80156104a15780601f10610476576101008083540402835291602001916104a1565b820191906000526020600020905b81548152906001019060200180831161048457829003601f168201915b505050505081526020016002820154815250508152602001906001019061039f565b50505050905090565b60026020528060005260406000206000915090505481565b8280546104f090610b34565b90600052602060002090601f0160209004810192826105125760008555610559565b82601f1061052b57805160ff1916838001178555610559565b82800160010185558215610559579182015b8281111561055857825182559160200191906001019061053d565b5b509050610566919061056a565b5090565b5b8082111561058357600081600090555060010161056b565b5090565b600061059a610595846109bf565b61098e565b9050828152602081018484840111156105b257600080fd5b6105bd848285610af2565b509392505050565b6000813590506105d481610c64565b92915050565b600082601f8301126105eb57600080fd5b81356105fb848260208601610587565b91505092915050565b60006020828403121561061657600080fd5b6000610624848285016105c5565b91505092915050565b60006020828403121561063f57600080fd5b600082013567ffffffffffffffff81111561065957600080fd5b610665848285016105da565b91505092915050565b600061067a838361085e565b905092915050565b61068b81610ab6565b82525050565b600061069c826109ff565b6106a68185610a22565b9350836020820285016106b8856109ef565b8060005b858110156106f457848403895281516106d5858261066e565b94506106e083610a15565b925060208a019950506001810190506106bc565b50829750879550505050505092915050565b600061071182610a0a565b61071b8185610a3e565b935061072b818560208601610b01565b61073481610c53565b840191505092915050565b600061074a82610a0a565b6107548185610a4f565b9350610764818560208601610b01565b61076d81610c53565b840191505092915050565b6000610785603883610a4f565b91507f54686520636f6e747261637420646f6573206e6f74206861766520656e6f756760008301527f6820657468657220746f2070617920746865207072697a6500000000000000006020830152604082019050919050565b60006107eb602483610a4f565b91507f54686520636f6e7472616374206661696c656420746f2070617920746865207060008301527f72697a65000000000000000000000000000000000000000000000000000000006020830152604082019050919050565b6000610851600083610a33565b9150600082019050919050565b60006060830160008301516108766000860182610682565b506020830151848203602086015261088e8282610706565b91505060408301516108a360408601826108ae565b508091505092915050565b6108b781610ae8565b82525050565b6108c681610ae8565b82525050565b60006108d782610844565b9150819050919050565b600060208201905081810360008301526108fb8184610691565b905092915050565b6000602082019050818103600083015261091c81610778565b9050919050565b6000602082019050818103600083015261093c816107de565b9050919050565b600060208201905061095860008301846108bd565b92915050565b600060408201905061097360008301856108bd565b8181036020830152610985818461073f565b90509392505050565b6000604051905081810181811067ffffffffffffffff821117156109b5576109b4610c24565b5b8060405250919050565b600067ffffffffffffffff8211156109da576109d9610c24565b5b601f19601f8301169050602081019050919050565b6000819050602082019050919050565b600081519050919050565b600081519050919050565b6000602082019050919050565b600082825260208201905092915050565b600081905092915050565b600082825260208201905092915050565b600082825260208201905092915050565b6000610a6b82610ae8565b9150610a7683610ae8565b9250827fffffffffffffffffffffffffffffffffffffffffffffffffffffffffffffffff03821115610aab57610aaa610b97565b5b828201905092915050565b6000610ac182610ac8565b9050919050565b600073ffffffffffffffffffffffffffffffffffffffff82169050919050565b6000819050919050565b82818337600083830152505050565b60005b83811015610b1f578082015181840152602081019050610b04565b83811115610b2e576000848401525b50505050565b60006002820490506001821680610b4c57607f821691505b60208210811415610b6057610b5f610bf5565b5b50919050565b6000610b7182610ae8565b9150610b7c83610ae8565b925082610b8c57610b8b610bc6565b5b828206905092915050565b7f4e487b7100000000000000000000000000000000000000000000000000000000600052601160045260246000fd5b7f4e487b7100000000000000000000000000000000000000000000000000000000600052601260045260246000fd5b7f4e487b7100000000000000000000000000000000000000000000000000000000600052602260045260246000fd5b7f4e487b7100000000000000000000000000000000000000000000000000000000600052604160045260246000fd5b6000601f19601f8301169050919050565b610c6d81610ab6565b8114610c7857600080fd5b5056fea2646970667358221220a2b8eb223f5793358241eb8f03249cf89ab6133a11e050740718bb33b0e1de5864736f6c63430008000033",
  "linkReferences": {},
  "deployedLinkReferences": {}
}